{
  "contractName": "DutchAuction",
  "abi": [
    {
      "anonymous": false,
      "inputs": [
        {
          "indexed": true,
          "internalType": "address",
          "name": "sender",
          "type": "address"
        },
        {
          "indexed": false,
          "internalType": "uint256",
          "name": "amount",
          "type": "uint256"
        }
      ],
      "name": "BidSubmission",
      "type": "event"
    },
    {
      "inputs": [],
      "name": "AUCTION_DURATION",
      "outputs": [
        {
          "internalType": "uint256",
          "name": "",
          "type": "uint256"
        }
      ],
      "stateMutability": "view",
      "type": "function"
    },
    {
      "inputs": [],
      "name": "LearnToken",
      "outputs": [
        {
          "internalType": "contract NTULearnToken",
          "name": "",
          "type": "address"
        }
      ],
      "stateMutability": "view",
      "type": "function"
    },
    {
      "inputs": [],
      "name": "MAX_TOKENS_SOLD",
      "outputs": [
        {
          "internalType": "uint256",
          "name": "",
          "type": "uint256"
        }
      ],
      "stateMutability": "view",
      "type": "function"
    },
    {
      "inputs": [
        {
          "internalType": "address",
          "name": "",
          "type": "address"
        }
      ],
      "name": "bids",
      "outputs": [
        {
          "internalType": "uint256",
          "name": "",
          "type": "uint256"
        }
      ],
      "stateMutability": "view",
      "type": "function"
    },
    {
      "inputs": [],
      "name": "clearPrice",
      "outputs": [
        {
          "internalType": "uint256",
          "name": "",
          "type": "uint256"
        }
      ],
      "stateMutability": "view",
      "type": "function"
    },
    {
      "inputs": [],
      "name": "endTime",
      "outputs": [
        {
          "internalType": "uint256",
          "name": "",
          "type": "uint256"
        }
      ],
      "stateMutability": "view",
      "type": "function"
    },
    {
      "inputs": [],
      "name": "finalPrice",
      "outputs": [
        {
          "internalType": "uint256",
          "name": "",
          "type": "uint256"
        }
      ],
      "stateMutability": "view",
      "type": "function"
    },
    {
      "inputs": [],
      "name": "owner",
      "outputs": [
        {
          "internalType": "address",
          "name": "",
          "type": "address"
        }
      ],
      "stateMutability": "view",
      "type": "function"
    },
    {
      "inputs": [],
      "name": "stage",
      "outputs": [
        {
          "internalType": "enum DutchAuction.Stages",
          "name": "",
          "type": "uint8"
        }
      ],
      "stateMutability": "view",
      "type": "function"
    },
    {
      "inputs": [],
      "name": "startPrice",
      "outputs": [
        {
          "internalType": "uint256",
          "name": "",
          "type": "uint256"
        }
      ],
      "stateMutability": "view",
      "type": "function"
    },
    {
      "inputs": [],
      "name": "startTime",
      "outputs": [
        {
          "internalType": "uint256",
          "name": "",
          "type": "uint256"
        }
      ],
      "stateMutability": "view",
      "type": "function"
    },
    {
      "inputs": [],
      "name": "totalReceived",
      "outputs": [
        {
          "internalType": "uint256",
          "name": "",
          "type": "uint256"
        }
      ],
      "stateMutability": "view",
      "type": "function"
    },
    {
      "inputs": [],
      "name": "wallet",
      "outputs": [
        {
          "internalType": "address payable",
          "name": "",
          "type": "address"
        }
      ],
      "stateMutability": "view",
      "type": "function"
    },
    {
      "inputs": [
        {
          "internalType": "address payable",
          "name": "_wallet",
          "type": "address"
        },
        {
          "internalType": "uint256",
          "name": "_startPrice",
          "type": "uint256"
        },
        {
          "internalType": "uint256",
          "name": "_clearPrice",
          "type": "uint256"
        }
      ],
      "name": "CreateAuction",
      "outputs": [],
      "stateMutability": "nonpayable",
      "type": "function"
    },
    {
      "inputs": [
        {
          "internalType": "address",
          "name": "_LearnToken",
          "type": "address"
        }
      ],
      "name": "setup",
      "outputs": [],
      "stateMutability": "nonpayable",
      "type": "function"
    },
    {
      "inputs": [],
      "name": "checkStage",
      "outputs": [
        {
          "internalType": "uint256",
          "name": "",
          "type": "uint256"
        }
      ],
      "stateMutability": "view",
      "type": "function"
    },
    {
      "inputs": [],
      "name": "startAuction",
      "outputs": [],
      "stateMutability": "nonpayable",
      "type": "function"
    },
    {
      "inputs": [
        {
          "internalType": "uint256",
          "name": "_startPrice",
          "type": "uint256"
        },
        {
          "internalType": "uint256",
          "name": "_clearPrice",
          "type": "uint256"
        }
      ],
      "name": "changeSettings",
      "outputs": [],
      "stateMutability": "nonpayable",
      "type": "function"
    },
    {
      "inputs": [],
      "name": "calcCurrentTokenPrice",
      "outputs": [
        {
          "internalType": "uint256",
          "name": "",
          "type": "uint256"
        }
      ],
      "stateMutability": "nonpayable",
      "type": "function"
    },
    {
      "inputs": [],
      "name": "updateStage",
      "outputs": [
        {
          "internalType": "enum DutchAuction.Stages",
          "name": "",
          "type": "uint8"
        }
      ],
      "stateMutability": "nonpayable",
      "type": "function"
    },
    {
      "inputs": [
        {
          "internalType": "address payable",
          "name": "receiver",
          "type": "address"
        }
      ],
      "name": "bid",
      "outputs": [
        {
          "internalType": "uint256",
          "name": "amount",
          "type": "uint256"
        }
      ],
      "stateMutability": "payable",
      "type": "function"
    },
    {
      "inputs": [
        {
          "internalType": "address",
          "name": "receiver",
          "type": "address"
        }
      ],
      "name": "claimTokens",
      "outputs": [],
      "stateMutability": "nonpayable",
      "type": "function"
    },
    {
      "inputs": [],
      "name": "calcTokenPrice",
      "outputs": [
        {
          "internalType": "uint256",
          "name": "",
          "type": "uint256"
        }
      ],
      "stateMutability": "view",
      "type": "function"
    },
    {
      "inputs": [],
      "name": "endAuction",
      "outputs": [],
      "stateMutability": "nonpayable",
      "type": "function"
    },
    {
      "inputs": [],
      "name": "skipTime",
      "outputs": [],
      "stateMutability": "nonpayable",
      "type": "function"
    },
    {
      "inputs": [],
      "name": "timeLeft",
      "outputs": [
        {
          "internalType": "uint256",
          "name": "",
          "type": "uint256"
        }
      ],
      "stateMutability": "view",
      "type": "function"
    },
    {
      "inputs": [],
      "name": "tokensLeft",
      "outputs": [
        {
          "internalType": "uint256",
          "name": "",
          "type": "uint256"
        }
      ],
      "stateMutability": "view",
      "type": "function"
    }
  ],
  "bytecode": "0x6080604052629896806000556104b060015534801561001d57600080fd5b506117e68061002d6000396000f3fe60806040526004361061019c5760003560e01c80637f93c751116100ec578063c040e6b81161008a578063d9f8a4e211610064578063d9f8a4e2146106d7578063df8de3e714610702578063f1a9af8914610753578063fe67a54b1461077e5761019c565b8063c040e6b81461063a578063c062f57814610673578063d4e8b043146106ac5761019c565b8063a271e525116100c6578063a271e5251461058e578063a3c2c462146105b9578063a6b513ee146105e4578063b31f8f931461060f5761019c565b80637f93c751146104b45780638da5cb5b146104df5780639cf5453d146105365761019c565b8063521eb273116101595780636b64c769116101335780636b64c769146103b6578063710f5a3d146103cd57806376b6dded1461043257806378e97925146104895761019c565b8063521eb273146102a957806362ea82db1461030057806366d38203146103655761019c565b80631300a6d1146101a15780631733ffe5146101cc57806317f5de95146101e35780633197cbb61461020e57806336d02c941461023957806339f64b521461027e575b600080fd5b3480156101ad57600080fd5b506101b6610795565b6040518082815260200191505060405180910390f35b3480156101d857600080fd5b506101e16107be565b005b3480156101ef57600080fd5b506101f8610822565b6040518082815260200191505060405180910390f35b34801561021a57600080fd5b50610223610828565b6040518082815260200191505060405180910390f35b34801561024557600080fd5b5061027c6004803603604081101561025c57600080fd5b81019080803590602001909291908035906020019092919050505061082e565b005b34801561028a57600080fd5b506102936108ce565b6040518082815260200191505060405180910390f35b3480156102b557600080fd5b506102be610975565b604051808273ffffffffffffffffffffffffffffffffffffffff1673ffffffffffffffffffffffffffffffffffffffff16815260200191505060405180910390f35b34801561030c57600080fd5b5061034f6004803603602081101561032357600080fd5b81019080803573ffffffffffffffffffffffffffffffffffffffff16906020019092919050505061099b565b6040518082815260200191505060405180910390f35b34801561037157600080fd5b506103b46004803603602081101561038857600080fd5b81019080803573ffffffffffffffffffffffffffffffffffffffff1690602001909291905050506109b3565b005b3480156103c257600080fd5b506103cb610bed565b005b3480156103d957600080fd5b50610430600480360360608110156103f057600080fd5b81019080803573ffffffffffffffffffffffffffffffffffffffff1690602001909291908035906020019092919080359060200190929190505050610ca8565b005b34801561043e57600080fd5b50610447610db1565b604051808273ffffffffffffffffffffffffffffffffffffffff1673ffffffffffffffffffffffffffffffffffffffff16815260200191505060405180910390f35b34801561049557600080fd5b5061049e610dd7565b6040518082815260200191505060405180910390f35b3480156104c057600080fd5b506104c9610ddd565b6040518082815260200191505060405180910390f35b3480156104eb57600080fd5b506104f4610ebd565b604051808273ffffffffffffffffffffffffffffffffffffffff1673ffffffffffffffffffffffffffffffffffffffff16815260200191505060405180910390f35b6105786004803603602081101561054c57600080fd5b81019080803573ffffffffffffffffffffffffffffffffffffffff169060200190929190505050610ee3565b6040518082815260200191505060405180910390f35b34801561059a57600080fd5b506105a361117d565b6040518082815260200191505060405180910390f35b3480156105c557600080fd5b506105ce611183565b6040518082815260200191505060405180910390f35b3480156105f057600080fd5b506105f9611189565b6040518082815260200191505060405180910390f35b34801561061b57600080fd5b5061062461118f565b6040518082815260200191505060405180910390f35b34801561064657600080fd5b5061064f6111be565b6040518082600381111561065f57fe5b60ff16815260200191505060405180910390f35b34801561067f57600080fd5b506106886111d1565b6040518082600381111561069857fe5b60ff16815260200191505060405180910390f35b3480156106b857600080fd5b506106c1611230565b6040518082815260200191505060405180910390f35b3480156106e357600080fd5b506106ec611236565b6040518082815260200191505060405180910390f35b34801561070e57600080fd5b506107516004803603602081101561072557600080fd5b81019080803573ffffffffffffffffffffffffffffffffffffffff1690602001909291905050506112c5565b005b34801561075f57600080fd5b50610768611571565b6040518082815260200191505060405180910390f35b34801561078a57600080fd5b50610793611577565b005b600080426001546007540103905060008110156107b65760009150506107bb565b809150505b90565b600460009054906101000a900473ffffffffffffffffffffffffffffffffffffffff1673ffffffffffffffffffffffffffffffffffffffff163373ffffffffffffffffffffffffffffffffffffffff161461081857600080fd5b6000600181905550565b60005481565b60085481565b600360009054906101000a900473ffffffffffffffffffffffffffffffffffffffff1673ffffffffffffffffffffffffffffffffffffffff163373ffffffffffffffffffffffffffffffffffffffff161461088857600080fd5b600180600381111561089657fe5b600c60009054906101000a900460ff1660038111156108b157fe5b146108bb57600080fd5b8260058190555081600681905550505050565b6000806005600154816108dd57fe5b0490506000600460065460055403816108f257fe5b049050816007540142101561090d5760055492505050610972565b816002026007540142101561092a57806005540392505050610972565b816003026007540142101561094a57806002026005540392505050610972565b816004026007540142101561096a57806003026005540392505050610972565b600654925050505b90565b600360009054906101000a900473ffffffffffffffffffffffffffffffffffffffff1681565b600b6020528060005260406000206000915090505481565b600460009054906101000a900473ffffffffffffffffffffffffffffffffffffffff1673ffffffffffffffffffffffffffffffffffffffff163373ffffffffffffffffffffffffffffffffffffffff1614610a0d57600080fd5b6000806003811115610a1b57fe5b600c60009054906101000a900460ff166003811115610a3657fe5b14610a4057600080fd5b600073ffffffffffffffffffffffffffffffffffffffff168273ffffffffffffffffffffffffffffffffffffffff161415610a7a57600080fd5b81600260006101000a81548173ffffffffffffffffffffffffffffffffffffffff021916908373ffffffffffffffffffffffffffffffffffffffff160217905550600054600260009054906101000a900473ffffffffffffffffffffffffffffffffffffffff1673ffffffffffffffffffffffffffffffffffffffff166370a08231600360009054906101000a900473ffffffffffffffffffffffffffffffffffffffff166040518263ffffffff1660e01b8152600401808273ffffffffffffffffffffffffffffffffffffffff1673ffffffffffffffffffffffffffffffffffffffff16815260200191505060206040518083038186803b158015610b7f57600080fd5b505afa158015610b93573d6000803e3d6000fd5b505050506040513d6020811015610ba957600080fd5b81019080805190602001909291905050501015610bc557600080fd5b6001600c60006101000a81548160ff02191690836003811115610be457fe5b02179055505050565b600360009054906101000a900473ffffffffffffffffffffffffffffffffffffffff1673ffffffffffffffffffffffffffffffffffffffff163373ffffffffffffffffffffffffffffffffffffffff1614610c4757600080fd5b6001806003811115610c5557fe5b600c60009054906101000a900460ff166003811115610c7057fe5b14610c7a57600080fd5b6002600c60006101000a81548160ff02191690836003811115610c9957fe5b02179055504260078190555050565b600073ffffffffffffffffffffffffffffffffffffffff168373ffffffffffffffffffffffffffffffffffffffff161480610ce35750600082145b80610cee5750600081145b15610cf857600080fd5b33600460006101000a81548173ffffffffffffffffffffffffffffffffffffffff021916908373ffffffffffffffffffffffffffffffffffffffff16021790555082600360006101000a81548173ffffffffffffffffffffffffffffffffffffffff021916908373ffffffffffffffffffffffffffffffffffffffff16021790555081600581905550806006819055506000600c60006101000a81548160ff02191690836003811115610da757fe5b0217905550505050565b600260009054906101000a900473ffffffffffffffffffffffffffffffffffffffff1681565b60075481565b6000806003811115610deb57fe5b600c60009054906101000a900460ff166003811115610e0657fe5b1415610e155760009050610eba565b60016003811115610e2257fe5b600c60009054906101000a900460ff166003811115610e3d57fe5b1415610e4c5760019050610eba565b60026003811115610e5957fe5b600c60009054906101000a900460ff166003811115610e7457fe5b1415610e835760029050610eba565b600380811115610e8f57fe5b600c60009054906101000a900460ff166003811115610eaa57fe5b1415610eb95760039050610eba565b5b90565b600460009054906101000a900473ffffffffffffffffffffffffffffffffffffffff1681565b60006004600036905014158015610eff57506024600036905014155b15610f0957600080fd5b60026003811115610f1657fe5b600c60009054906101000a900460ff166003811115610f3157fe5b148015610f4357506001546007540142115b15610f5157610f506115db565b5b6002806003811115610f5f57fe5b600c60009054906101000a900460ff166003811115610f7a57fe5b14610f8457600080fd5b600073ffffffffffffffffffffffffffffffffffffffff168373ffffffffffffffffffffffffffffffffffffffff161415610fbd573392505b3491506000610fca61118f565b90506000610fd66108ce565b905060008183029050600080905082861015610ff157600080fd5b81861061103f5781955085340390508673ffffffffffffffffffffffffffffffffffffffff166108fc829081150290604051600060405180830381858888f1935050505061103e57600080fd5b5b60008614806110a25750600360009054906101000a900473ffffffffffffffffffffffffffffffffffffffff1673ffffffffffffffffffffffffffffffffffffffff166108fc879081150290604051600060405180830381858888f19350505050155b156110ac57600080fd5b85600b60008973ffffffffffffffffffffffffffffffffffffffff1673ffffffffffffffffffffffffffffffffffffffff16815260200190815260200160002060008282540192505081905550856009600082825401925050819055506000836000540290508060095410611124576111236115db565b5b8773ffffffffffffffffffffffffffffffffffffffff167f9c89e828e6cee6374b68147c9e753e41746aad98ba255a527a4fc0ac1868bff9886040518082815260200191505060405180910390a2505050505050919050565b60015481565b60095481565b600a5481565b60008061119a6108ce565b9050600081600954816111a957fe5b04905060008160005403905080935050505090565b600c60009054906101000a900460ff1681565b6000600260038111156111e057fe5b600c60009054906101000a900460ff1660038111156111fb57fe5b14801561120d57506001546007540142115b1561121b5761121a6115db565b5b600c60009054906101000a900460ff16905090565b60065481565b60006002600381111561124557fe5b600c60009054906101000a900460ff16600381111561126057fe5b14801561127257506001546007540142115b156112805761127f6115db565b5b60038081111561128c57fe5b600c60009054906101000a900460ff1660038111156112a757fe5b14156112b757600a5490506112c2565b6112bf6108ce565b90505b90565b60046000369050141580156112df57506024600036905014155b156112e957600080fd5b600260038111156112f657fe5b600c60009054906101000a900460ff16600381111561131157fe5b14801561132357506001546007540142115b15611331576113306115db565b5b600380600381111561133f57fe5b600c60009054906101000a900460ff16600381111561135a57fe5b1461136457600080fd5b600073ffffffffffffffffffffffffffffffffffffffff168273ffffffffffffffffffffffffffffffffffffffff16141561139d573391505b6000600a54600b60008573ffffffffffffffffffffffffffffffffffffffff1673ffffffffffffffffffffffffffffffffffffffff16815260200190815260200160002054816113e957fe5b0490506000600b60008573ffffffffffffffffffffffffffffffffffffffff1673ffffffffffffffffffffffffffffffffffffffff16815260200190815260200160002081905550600260009054906101000a900473ffffffffffffffffffffffffffffffffffffffff1673ffffffffffffffffffffffffffffffffffffffff166323b872dd600360009054906101000a900473ffffffffffffffffffffffffffffffffffffffff1685846040518463ffffffff1660e01b8152600401808473ffffffffffffffffffffffffffffffffffffffff1673ffffffffffffffffffffffffffffffffffffffff1681526020018373ffffffffffffffffffffffffffffffffffffffff1673ffffffffffffffffffffffffffffffffffffffff1681526020018281526020019350505050602060405180830381600087803b15801561153057600080fd5b505af1158015611544573d6000803e3d6000fd5b505050506040513d602081101561155a57600080fd5b810190808051906020019092919050505050505050565b60055481565b600460009054906101000a900473ffffffffffffffffffffffffffffffffffffffff1673ffffffffffffffffffffffffffffffffffffffff163373ffffffffffffffffffffffffffffffffffffffff16146115d157600080fd5b6115d96115db565b565b6003600c60006101000a81548160ff021916908360038111156115fa57fe5b02179055506116076108ce565b600a819055506000600a546009548161161c57fe5b049050600260009054906101000a900473ffffffffffffffffffffffffffffffffffffffff1673ffffffffffffffffffffffffffffffffffffffff166379cc6790600360009054906101000a900473ffffffffffffffffffffffffffffffffffffffff1683600260009054906101000a900473ffffffffffffffffffffffffffffffffffffffff1673ffffffffffffffffffffffffffffffffffffffff166318160ddd6040518163ffffffff1660e01b815260040160206040518083038186803b1580156116e957600080fd5b505afa1580156116fd573d6000803e3d6000fd5b505050506040513d602081101561171357600080fd5b8101908080519060200190929190505050036040518363ffffffff1660e01b8152600401808373ffffffffffffffffffffffffffffffffffffffff1673ffffffffffffffffffffffffffffffffffffffff16815260200182815260200192505050600060405180830381600087803b15801561178e57600080fd5b505af11580156117a2573d6000803e3d6000fd5b50505050426008819055505056fea2646970667358221220dbea3f599d457b720ec5f458f7eb72e6a810970acc56e8e5c20fc25271a31f4664736f6c63430006020033",
  "source": "pragma solidity ^0.6.0;\r\nimport \"./NTULearnToken.sol\";\r\n\r\ncontract DutchAuction {\r\n\r\n    /*\r\n     *  Events\r\n     */\r\n    event BidSubmission(address indexed sender, uint256 amount);\r\n\r\n    /*\r\n     *  Constants\r\n     */\r\n    uint256 public MAX_TOKENS_SOLD = 10000000; \r\n    uint256 public AUCTION_DURATION = 20 minutes;\r\n\r\n    /*\r\n     *  Storage\r\n     */\r\n    NTULearnToken public LearnToken;\r\n    address payable public wallet;\r\n    address public owner;\r\n    uint256 public startPrice;\r\n    uint256 public clearPrice;\r\n    uint256 public startTime;\r\n    uint256 public endTime;\r\n    uint256 public totalReceived;\r\n    uint256 public finalPrice;\r\n    mapping (address => uint) public bids;\r\n    Stages public stage;\r\n\r\n    /*\r\n     *  Enums\r\n     */\r\n    enum Stages {\r\n        AuctionDeployed,\r\n        AuctionSetUp,\r\n        AuctionStarted,\r\n        AuctionEnded\r\n    }\r\n\r\n    /*\r\n     *  Modifiers\r\n     */\r\n    modifier atStage(Stages _stage) {\r\n        if (stage != _stage)\r\n            // Contract not in expected state\r\n            revert();\r\n        _;\r\n    }\r\n\r\n    modifier isOwner() {\r\n        if (msg.sender != owner)\r\n            // Only owner is allowed to proceed\r\n            revert();\r\n        _;\r\n    }\r\n\r\n    modifier isWallet() {\r\n        if (msg.sender != wallet)\r\n            // Only wallet is allowed to proceed\r\n            revert();\r\n        _;\r\n    }\r\n\r\n    modifier isValidPayload() {\r\n        if (msg.data.length != 4 && msg.data.length != 36)\r\n            revert();\r\n        _;\r\n    }\r\n\r\n    modifier timedTransitions() {\r\n        if (stage == Stages.AuctionStarted && now > startTime + AUCTION_DURATION)\r\n            finalizeAuction();\r\n        _;\r\n    }\r\n\r\n    /*\r\n     *  Public functions\r\n     */\r\n    /// @dev Contract constructor function sets owner.\r\n    /// @param _wallet Learn wallet.\r\n    /// @param _startPrice Auction start price.\r\n    function CreateAuction(address payable _wallet, uint256 _startPrice, uint256 _clearPrice)\r\n        public\r\n    {\r\n        if (_wallet == address(0) || _startPrice == 0 || _clearPrice == 0)\r\n            // Arguments are null.\r\n            revert();\r\n        owner = msg.sender;\r\n        wallet = _wallet;\r\n        startPrice = _startPrice;\r\n        clearPrice = _clearPrice;\r\n        stage = Stages.AuctionDeployed;\r\n    }\r\n\r\n    /// @dev Setup function sets external contracts' addresses.\r\n    /// @param _LearnToken Learn token address.\r\n    function setup(address _LearnToken)\r\n        public\r\n        isOwner\r\n        atStage(Stages.AuctionDeployed)\r\n    {\r\n        if (_LearnToken == address(0))\r\n            // Argument is null.\r\n            revert();\r\n        LearnToken = NTULearnToken(_LearnToken);\r\n        // Validate token balance\r\n        if (LearnToken.balanceOf(wallet) < MAX_TOKENS_SOLD)\r\n            revert();\r\n        stage = Stages.AuctionSetUp;\r\n    }\r\n\r\n    function checkStage()\r\n        public\r\n        view\r\n        returns (uint256)\r\n    {\r\n        if (stage==Stages.AuctionDeployed)\r\n            return(0);\r\n        if (stage==Stages.AuctionSetUp)\r\n            return(1);\r\n        if (stage==Stages.AuctionStarted)\r\n            return(2);\r\n        if (stage==Stages.AuctionEnded)\r\n            return(3);\r\n    }\r\n\r\n    /// @dev Starts auction and sets startTime.\r\n    function startAuction()\r\n        public\r\n        isWallet\r\n        atStage(Stages.AuctionSetUp)\r\n    {\r\n        stage = Stages.AuctionStarted;\r\n        startTime = now;\r\n    }\r\n\r\n    /// @dev Changes price factor before auction is started.\r\n    /// @param _startPrice Updated start price factor.\r\n    function changeSettings(uint256 _startPrice, uint _clearPrice)\r\n        public\r\n        isWallet\r\n        atStage(Stages.AuctionSetUp)\r\n    {\r\n        startPrice = _startPrice;\r\n        clearPrice = _clearPrice;\r\n    }\r\n\r\n    /// @dev Calculates current token price.\r\n    /// @return Returns token price.\r\n    function calcCurrentTokenPrice()\r\n        public\r\n        timedTransitions\r\n        returns (uint256)\r\n    {\r\n        if (stage == Stages.AuctionEnded)\r\n            return finalPrice;\r\n        return calcTokenPrice();\r\n    }\r\n\r\n    /// @dev Returns correct stage, even if a function with timedTransitions modifier has not yet been called yet.\r\n    /// @return Returns current auction stage.\r\n    function updateStage()\r\n        public\r\n        timedTransitions\r\n        returns (Stages)\r\n    {\r\n        return stage;\r\n    }\r\n\r\n    /// @dev Allows to send a bid to the auction.\r\n    /// @param receiver Bid will be assigned to this address if set.\r\n    function bid(address payable receiver)\r\n        public\r\n        payable\r\n        isValidPayload\r\n        timedTransitions\r\n        atStage(Stages.AuctionStarted)\r\n        returns (uint256 amount)\r\n    {\r\n        // If a bid is done on behalf of a user via ShapeShift, the receiver address is set.\r\n        if (receiver == address(0))\r\n            receiver = msg.sender;\r\n        amount = msg.value;\r\n\r\n        uint256 tokenSupply = tokensLeft();\r\n        uint256 currentPrice = calcTokenPrice();\r\n        uint256 maxWei = tokenSupply * currentPrice;\r\n        uint256 returnAmt = 0;\r\n        // Unable to buy at least one token\r\n        if (amount < currentPrice)\r\n            revert();\r\n        // Only invest maximum possible amount \r\n        if (amount >= maxWei) {\r\n                amount = maxWei;\r\n            returnAmt = msg.value - amount;\r\n            // Send change back to receiver address.\r\n            if (!receiver.send(returnAmt))\r\n            // Sending failed\r\n                revert();\r\n        }\r\n        // Forward funding to ether wallet\r\n        if (amount == 0||!wallet.send(amount))\r\n            // No amount sent or sending failed\r\n            revert();\r\n        bids[receiver] += amount;\r\n        totalReceived += amount;\r\n        uint256 cap = MAX_TOKENS_SOLD * currentPrice;\r\n        if (totalReceived >= cap)\r\n            // When maxWei is equal to the big amount the auction is ended and finalizeAuction is triggered.\r\n            finalizeAuction();\r\n        BidSubmission(receiver, amount);\r\n    }\r\n\r\n    /// @dev Claims tokens for bidder after auction.\r\n    /// @param receiver Tokens will be assigned to this address if set.\r\n    function claimTokens(address receiver)\r\n        public\r\n        isValidPayload\r\n        timedTransitions\r\n        atStage(Stages.AuctionEnded)\r\n    {\r\n        if (receiver == address(0))\r\n            receiver = msg.sender;\r\n        // tokenCount will be rounded down for all successful bids\r\n        uint256 tokenCount = bids[receiver]  / finalPrice;\r\n        bids[receiver] = 0;\r\n        LearnToken.transferFrom(wallet, receiver, tokenCount);\r\n    }\r\n\r\n    /// @dev Calculates token price.\r\n    /// @return Returns token price.\r\n    function calcTokenPrice()\r\n        public\r\n        view\r\n        returns (uint256)\r\n    {\r\n        //need to scale from start price to clear price\r\n        uint256 interval = AUCTION_DURATION / 5;\r\n        uint256 decrement = (startPrice - clearPrice) / 4;\r\n        if (now < startTime + interval)\r\n            return startPrice;\r\n        else if (now < startTime + (2*interval))\r\n            return startPrice - decrement;\r\n        else if (now < startTime + (3*interval))\r\n            return startPrice - (2*decrement);\r\n        else if (now < startTime + (4*interval))\r\n            return startPrice - (3*decrement);\r\n        else{\r\n            return clearPrice;\r\n        }\r\n    }\r\n\r\n    function endAuction() \r\n        public \r\n        isOwner\r\n    {\r\n        finalizeAuction();\r\n    }\r\n\r\n    function skipTime()\r\n        public\r\n        isOwner\r\n    {\r\n        AUCTION_DURATION = 0 minutes;\r\n    }\r\n\r\n    function timeLeft()\r\n        public\r\n        view\r\n        returns (uint256)\r\n    {\r\n        uint256 remainingTime = startTime + AUCTION_DURATION - now;\r\n        if (remainingTime < 0){\r\n            return 0;\r\n        } else {\r\n            return remainingTime;\r\n        }\r\n    }\r\n\r\n    function tokensLeft()\r\n        public\r\n        view\r\n        returns (uint256)\r\n    {\r\n        uint256 currPrice = calcTokenPrice(); \r\n        uint256 soldTokens = totalReceived / currPrice;\r\n        uint256 tokensRemaining = MAX_TOKENS_SOLD - soldTokens;\r\n        return tokensRemaining; \r\n    }\r\n\r\n    /*\r\n     *  Private functions\r\n     */\r\n    function finalizeAuction()\r\n        private\r\n    {\r\n        stage = Stages.AuctionEnded;\r\n        finalPrice = calcTokenPrice();\r\n        uint256 soldTokens = totalReceived / finalPrice;\r\n        // Auction contract burns all unsold tokens\r\n        LearnToken.burnFrom(wallet, LearnToken.totalSupply() - soldTokens);\r\n        endTime = now;\r\n    }\r\n}",
  "sourcePath": "C:\\Users\\jonsd\\Documents\\GitHub\\blockchain\\contracts\\DutchAuction.sol",
  "compiler": {
    "name": "solc",
    "version": "0.6.2+commit.bacdbe57.Emscripten.clang"
  },
  "schemaVersion": "3.0.23",
  "updatedAt": "2020-10-30T13:10:51.299Z",
  "devdoc": {
    "methods": {
      "CreateAuction(address,uint256,uint256)": {
        "details": "Contract constructor function sets owner.",
        "params": {
          "_startPrice": "Auction start price.",
          "_wallet": "Learn wallet."
        }
      },
      "bid(address)": {
        "details": "Allows to send a bid to the auction.",
        "params": {
          "receiver": "Bid will be assigned to this address if set."
        }
      },
      "calcCurrentTokenPrice()": {
        "details": "Calculates current token price.",
        "returns": {
          "_0": "Returns token price."
        }
      },
      "calcTokenPrice()": {
        "details": "Calculates token price.",
        "returns": {
          "_0": "Returns token price."
        }
      },
      "changeSettings(uint256,uint256)": {
        "details": "Changes price factor before auction is started.",
        "params": {
          "_startPrice": "Updated start price factor."
        }
      },
      "claimTokens(address)": {
        "details": "Claims tokens for bidder after auction.",
        "params": {
          "receiver": "Tokens will be assigned to this address if set."
        }
      },
      "setup(address)": {
        "details": "Setup function sets external contracts' addresses.",
        "params": {
          "_LearnToken": "Learn token address."
        }
      },
      "startAuction()": {
        "details": "Starts auction and sets startTime."
      },
      "updateStage()": {
        "details": "Returns correct stage, even if a function with timedTransitions modifier has not yet been called yet.",
        "returns": {
          "_0": "Returns current auction stage."
        }
      }
    }
  },
  "userdoc": {
    "methods": {}
  }
}