{
  "contractName": "DutchAuction",
  "abi": [
    {
      "anonymous": false,
      "inputs": [
        {
          "indexed": true,
          "internalType": "address",
          "name": "sender",
          "type": "address"
        },
        {
          "indexed": false,
          "internalType": "uint256",
          "name": "amount",
          "type": "uint256"
        }
      ],
      "name": "BidSubmission",
      "type": "event"
    },
    {
      "inputs": [],
      "name": "AUCTION_DURATION",
      "outputs": [
        {
          "internalType": "uint256",
          "name": "",
          "type": "uint256"
        }
      ],
      "stateMutability": "view",
      "type": "function",
      "constant": true
    },
    {
      "inputs": [],
      "name": "LearnToken",
      "outputs": [
        {
          "internalType": "contract NTULearnToken",
          "name": "",
          "type": "address"
        }
      ],
      "stateMutability": "view",
      "type": "function",
      "constant": true
    },
    {
      "inputs": [],
      "name": "MAX_TOKENS_SOLD",
      "outputs": [
        {
          "internalType": "uint256",
          "name": "",
          "type": "uint256"
        }
      ],
      "stateMutability": "view",
      "type": "function",
      "constant": true
    },
    {
      "inputs": [],
      "name": "WAITING_PERIOD",
      "outputs": [
        {
          "internalType": "uint256",
          "name": "",
          "type": "uint256"
        }
      ],
      "stateMutability": "view",
      "type": "function",
      "constant": true
    },
    {
      "inputs": [
        {
          "internalType": "address",
          "name": "",
          "type": "address"
        }
      ],
      "name": "bids",
      "outputs": [
        {
          "internalType": "uint256",
          "name": "",
          "type": "uint256"
        }
      ],
      "stateMutability": "view",
      "type": "function",
      "constant": true
    },
    {
      "inputs": [],
      "name": "ceiling",
      "outputs": [
        {
          "internalType": "uint256",
          "name": "",
          "type": "uint256"
        }
      ],
      "stateMutability": "view",
      "type": "function",
      "constant": true
    },
    {
      "inputs": [],
      "name": "clearPrice",
      "outputs": [
        {
          "internalType": "uint256",
          "name": "",
          "type": "uint256"
        }
      ],
      "stateMutability": "view",
      "type": "function",
      "constant": true
    },
    {
      "inputs": [],
      "name": "endTime",
      "outputs": [
        {
          "internalType": "uint256",
          "name": "",
          "type": "uint256"
        }
      ],
      "stateMutability": "view",
      "type": "function",
      "constant": true
    },
    {
      "inputs": [],
      "name": "finalPrice",
      "outputs": [
        {
          "internalType": "uint256",
          "name": "",
          "type": "uint256"
        }
      ],
      "stateMutability": "view",
      "type": "function",
      "constant": true
    },
    {
      "inputs": [],
      "name": "owner",
      "outputs": [
        {
          "internalType": "address",
          "name": "",
          "type": "address"
        }
      ],
      "stateMutability": "view",
      "type": "function",
      "constant": true
    },
    {
      "inputs": [],
      "name": "stage",
      "outputs": [
        {
          "internalType": "enum DutchAuction.Stages",
          "name": "",
          "type": "uint8"
        }
      ],
      "stateMutability": "view",
      "type": "function",
      "constant": true
    },
    {
      "inputs": [],
      "name": "startPrice",
      "outputs": [
        {
          "internalType": "uint256",
          "name": "",
          "type": "uint256"
        }
      ],
      "stateMutability": "view",
      "type": "function",
      "constant": true
    },
    {
      "inputs": [],
      "name": "startTime",
      "outputs": [
        {
          "internalType": "uint256",
          "name": "",
          "type": "uint256"
        }
      ],
      "stateMutability": "view",
      "type": "function",
      "constant": true
    },
    {
      "inputs": [],
      "name": "totalReceived",
      "outputs": [
        {
          "internalType": "uint256",
          "name": "",
          "type": "uint256"
        }
      ],
      "stateMutability": "view",
      "type": "function",
      "constant": true
    },
    {
      "inputs": [],
      "name": "wallet",
      "outputs": [
        {
          "internalType": "address payable",
          "name": "",
          "type": "address"
        }
      ],
      "stateMutability": "view",
      "type": "function",
      "constant": true
    },
    {
      "inputs": [
        {
          "internalType": "address payable",
          "name": "_wallet",
          "type": "address"
        },
        {
          "internalType": "uint256",
          "name": "_ceiling",
          "type": "uint256"
        },
        {
          "internalType": "uint256",
          "name": "_startPrice",
          "type": "uint256"
        },
        {
          "internalType": "uint256",
          "name": "_clearPrice",
          "type": "uint256"
        }
      ],
      "name": "CreateAuction",
      "outputs": [],
      "stateMutability": "nonpayable",
      "type": "function"
    },
    {
      "inputs": [
        {
          "internalType": "address",
          "name": "_LearnToken",
          "type": "address"
        }
      ],
      "name": "setup",
      "outputs": [],
      "stateMutability": "nonpayable",
      "type": "function"
    },
    {
      "inputs": [],
      "name": "checkStage",
      "outputs": [
        {
          "internalType": "uint256",
          "name": "",
          "type": "uint256"
        }
      ],
      "stateMutability": "view",
      "type": "function",
      "constant": true
    },
    {
      "inputs": [],
      "name": "startAuction",
      "outputs": [],
      "stateMutability": "nonpayable",
      "type": "function"
    },
    {
      "inputs": [
        {
          "internalType": "uint256",
          "name": "_ceiling",
          "type": "uint256"
        },
        {
          "internalType": "uint256",
          "name": "_startPrice",
          "type": "uint256"
        },
        {
          "internalType": "uint256",
          "name": "_clearPrice",
          "type": "uint256"
        }
      ],
      "name": "changeSettings",
      "outputs": [],
      "stateMutability": "nonpayable",
      "type": "function"
    },
    {
      "inputs": [],
      "name": "calcCurrentTokenPrice",
      "outputs": [
        {
          "internalType": "uint256",
          "name": "",
          "type": "uint256"
        }
      ],
      "stateMutability": "nonpayable",
      "type": "function"
    },
    {
      "inputs": [],
      "name": "updateStage",
      "outputs": [
        {
          "internalType": "enum DutchAuction.Stages",
          "name": "",
          "type": "uint8"
        }
      ],
      "stateMutability": "nonpayable",
      "type": "function"
    },
    {
      "inputs": [
        {
          "internalType": "address payable",
          "name": "receiver",
          "type": "address"
        }
      ],
      "name": "bid",
      "outputs": [
        {
          "internalType": "uint256",
          "name": "amount",
          "type": "uint256"
        }
      ],
      "stateMutability": "payable",
      "type": "function",
      "payable": true
    },
    {
      "inputs": [
        {
          "internalType": "address",
          "name": "receiver",
          "type": "address"
        }
      ],
      "name": "claimTokens",
      "outputs": [],
      "stateMutability": "nonpayable",
      "type": "function"
    },
    {
      "inputs": [],
      "name": "calcTokenPrice",
      "outputs": [
        {
          "internalType": "uint256",
          "name": "",
          "type": "uint256"
        }
      ],
      "stateMutability": "view",
      "type": "function",
      "constant": true
    },
    {
      "inputs": [],
      "name": "skipTime",
      "outputs": [],
      "stateMutability": "nonpayable",
      "type": "function"
    }
  ],
  "bytecode": "0x6080604052620186a0600055603c6001556104b060025534801561002257600080fd5b50611a51806100326000396000f3fe6080604052600436106101815760003560e01c80637f93c751116100d1578063a6b513ee1161008a578063d4e8b04311610064578063d4e8b043146106a5578063d9f8a4e2146106d0578063df8de3e7146106fb578063f1a9af891461074c57610181565b8063a6b513ee14610608578063c040e6b814610633578063c062f5781461066c57610181565b80637f93c751146104895780638da5cb5b146104b45780639cf5453d1461050b578063a271e52514610563578063a3c2c4621461058e578063a626c089146105b957610181565b806362ea82db1161013e5780636f85c7e4116101185780636f85c7e4146103b1578063753ed1bd146103dc57806376b6dded1461040757806378e979251461045e57610181565b806362ea82db146102e457806366d38203146103495780636b64c7691461039a57610181565b80631733ffe51461018657806317f5de951461019d5780633197cbb6146101c857806339f64b52146101f3578063521eb2731461021e5780635e4dbe7914610275575b600080fd5b34801561019257600080fd5b5061019b610777565b005b3480156101a957600080fd5b506101b26107ad565b6040518082815260200191505060405180910390f35b3480156101d457600080fd5b506101dd6107b3565b6040518082815260200191505060405180910390f35b3480156101ff57600080fd5b506102086107b9565b6040518082815260200191505060405180910390f35b34801561022a57600080fd5b50610233610860565b604051808273ffffffffffffffffffffffffffffffffffffffff1673ffffffffffffffffffffffffffffffffffffffff16815260200191505060405180910390f35b34801561028157600080fd5b506102e26004803603608081101561029857600080fd5b81019080803573ffffffffffffffffffffffffffffffffffffffff169060200190929190803590602001909291908035906020019092919080359060200190929190505050610886565b005b3480156102f057600080fd5b506103336004803603602081101561030757600080fd5b81019080803573ffffffffffffffffffffffffffffffffffffffff1690602001909291905050506109a2565b6040518082815260200191505060405180910390f35b34801561035557600080fd5b506103986004803603602081101561036c57600080fd5b81019080803573ffffffffffffffffffffffffffffffffffffffff1690602001909291905050506109ba565b005b3480156103a657600080fd5b506103af610bf4565b005b3480156103bd57600080fd5b506103c6610caf565b6040518082815260200191505060405180910390f35b3480156103e857600080fd5b506103f1610cb5565b6040518082815260200191505060405180910390f35b34801561041357600080fd5b5061041c610cbb565b604051808273ffffffffffffffffffffffffffffffffffffffff1673ffffffffffffffffffffffffffffffffffffffff16815260200191505060405180910390f35b34801561046a57600080fd5b50610473610ce1565b6040518082815260200191505060405180910390f35b34801561049557600080fd5b5061049e610ce7565b6040518082815260200191505060405180910390f35b3480156104c057600080fd5b506104c9610dfe565b604051808273ffffffffffffffffffffffffffffffffffffffff1673ffffffffffffffffffffffffffffffffffffffff16815260200191505060405180910390f35b61054d6004803603602081101561052157600080fd5b81019080803573ffffffffffffffffffffffffffffffffffffffff169060200190929190505050610e24565b6040518082815260200191505060405180910390f35b34801561056f57600080fd5b50610578611196565b6040518082815260200191505060405180910390f35b34801561059a57600080fd5b506105a361119c565b6040518082815260200191505060405180910390f35b3480156105c557600080fd5b50610606600480360360608110156105dc57600080fd5b810190808035906020019092919080359060200190929190803590602001909291905050506111a2565b005b34801561061457600080fd5b5061061d61124a565b6040518082815260200191505060405180910390f35b34801561063f57600080fd5b50610648611250565b6040518082600481111561065857fe5b60ff16815260200191505060405180910390f35b34801561067857600080fd5b50610681611263565b6040518082600481111561069157fe5b60ff16815260200191505060405180910390f35b3480156106b157600080fd5b506106ba611371565b6040518082815260200191505060405180910390f35b3480156106dc57600080fd5b506106e5611377565b6040518082815260200191505060405180910390f35b34801561070757600080fd5b5061074a6004803603602081101561071e57600080fd5b81019080803573ffffffffffffffffffffffffffffffffffffffff1690602001909291905050506114e5565b005b34801561075857600080fd5b50610761611840565b6040518082815260200191505060405180910390f35b6000600181905550610787611846565b6004600e60006101000a81548160ff021916908360048111156107a657fe5b0217905550565b60005481565b600a5481565b6000806005600254816107c857fe5b0490506000600460085460075403816107dd57fe5b04905081600954014210156107f8576007549250505061085d565b81600202600954014210156108155780600754039250505061085d565b81600302600954014210156108355780600202600754039250505061085d565b81600402600954014210156108555780600302600754039250505061085d565b600854925050505b90565b600460009054906101000a900473ffffffffffffffffffffffffffffffffffffffff1681565b600073ffffffffffffffffffffffffffffffffffffffff168473ffffffffffffffffffffffffffffffffffffffff1614806108c15750600083145b806108cc5750600082145b806108d75750600081145b156108e157600080fd5b33600560006101000a81548173ffffffffffffffffffffffffffffffffffffffff021916908373ffffffffffffffffffffffffffffffffffffffff16021790555083600460006101000a81548173ffffffffffffffffffffffffffffffffffffffff021916908373ffffffffffffffffffffffffffffffffffffffff1602179055508260068190555081600781905550806008819055506000600e60006101000a81548160ff0219169083600481111561099757fe5b021790555050505050565b600d6020528060005260406000206000915090505481565b600560009054906101000a900473ffffffffffffffffffffffffffffffffffffffff1673ffffffffffffffffffffffffffffffffffffffff163373ffffffffffffffffffffffffffffffffffffffff1614610a1457600080fd5b6000806004811115610a2257fe5b600e60009054906101000a900460ff166004811115610a3d57fe5b14610a4757600080fd5b600073ffffffffffffffffffffffffffffffffffffffff168273ffffffffffffffffffffffffffffffffffffffff161415610a8157600080fd5b81600360006101000a81548173ffffffffffffffffffffffffffffffffffffffff021916908373ffffffffffffffffffffffffffffffffffffffff160217905550600054600360009054906101000a900473ffffffffffffffffffffffffffffffffffffffff1673ffffffffffffffffffffffffffffffffffffffff166370a08231600460009054906101000a900473ffffffffffffffffffffffffffffffffffffffff166040518263ffffffff1660e01b8152600401808273ffffffffffffffffffffffffffffffffffffffff1673ffffffffffffffffffffffffffffffffffffffff16815260200191505060206040518083038186803b158015610b8657600080fd5b505afa158015610b9a573d6000803e3d6000fd5b505050506040513d6020811015610bb057600080fd5b81019080805190602001909291905050501015610bcc57600080fd5b6001600e60006101000a81548160ff02191690836004811115610beb57fe5b02179055505050565b600460009054906101000a900473ffffffffffffffffffffffffffffffffffffffff1673ffffffffffffffffffffffffffffffffffffffff163373ffffffffffffffffffffffffffffffffffffffff1614610c4e57600080fd5b6001806004811115610c5c57fe5b600e60009054906101000a900460ff166004811115610c7757fe5b14610c8157600080fd5b6002600e60006101000a81548160ff02191690836004811115610ca057fe5b02179055504260098190555050565b60015481565b60065481565b600360009054906101000a900473ffffffffffffffffffffffffffffffffffffffff1681565b60095481565b6000806004811115610cf557fe5b600e60009054906101000a900460ff166004811115610d1057fe5b1415610d1f5760009050610dfb565b60016004811115610d2c57fe5b600e60009054906101000a900460ff166004811115610d4757fe5b1415610d565760019050610dfb565b60026004811115610d6357fe5b600e60009054906101000a900460ff166004811115610d7e57fe5b1415610d8d5760029050610dfb565b60036004811115610d9a57fe5b600e60009054906101000a900460ff166004811115610db557fe5b1415610dc45760039050610dfb565b600480811115610dd057fe5b600e60009054906101000a900460ff166004811115610deb57fe5b1415610dfa5760049050610dfb565b5b90565b600560009054906101000a900473ffffffffffffffffffffffffffffffffffffffff1681565b60006004600036905014158015610e4057506024600036905014155b15610e4a57600080fd5b60026004811115610e5757fe5b600e60009054906101000a900460ff166004811115610e7257fe5b148015610e875750600854610e856107b9565b105b15610e9557610e94611846565b5b60026004811115610ea257fe5b600e60009054906101000a900460ff166004811115610ebd57fe5b148015610ecf57506002546009540142115b15610edd57610edc611846565b5b60036004811115610eea57fe5b600e60009054906101000a900460ff166004811115610f0557fe5b148015610f175750600154600a540142115b15610f41576004600e60006101000a81548160ff02191690836004811115610f3b57fe5b02179055505b6002806004811115610f4f57fe5b600e60009054906101000a900460ff166004811115610f6a57fe5b14610f7457600080fd5b600073ffffffffffffffffffffffffffffffffffffffff168373ffffffffffffffffffffffffffffffffffffffff161415610fad573392505b3491506000600b5460065403905060008090506000610fca6107b9565b905080851015610fd957600080fd5b8285111561106157808381610fea57fe5b06600854038301851061100e5780838161100057fe5b06600854038301945061101d565b80838161101757fe5b06830394505b84340391508573ffffffffffffffffffffffffffffffffffffffff166108fc839081150290604051600060405180830381858888f1935050505061106057600080fd5b5b60008514806110c45750600460009054906101000a900473ffffffffffffffffffffffffffffffffffffffff1673ffffffffffffffffffffffffffffffffffffffff166108fc869081150290604051600060405180830381858888f19350505050155b156110ce57600080fd5b84600d60008873ffffffffffffffffffffffffffffffffffffffff1673ffffffffffffffffffffffffffffffffffffffff1681526020019081526020016000206000828254019250508190555084600b60008282540192505081905550600654600b541061113f5761113e611846565b5b8573ffffffffffffffffffffffffffffffffffffffff167f9c89e828e6cee6374b68147c9e753e41746aad98ba255a527a4fc0ac1868bff9866040518082815260200191505060405180910390a250505050919050565b60025481565b600b5481565b600460009054906101000a900473ffffffffffffffffffffffffffffffffffffffff1673ffffffffffffffffffffffffffffffffffffffff163373ffffffffffffffffffffffffffffffffffffffff16146111fc57600080fd5b600180600481111561120a57fe5b600e60009054906101000a900460ff16600481111561122557fe5b1461122f57600080fd5b83600681905550826007819055508160088190555050505050565b600c5481565b600e60009054906101000a900460ff1681565b60006002600481111561127257fe5b600e60009054906101000a900460ff16600481111561128d57fe5b1480156112a257506008546112a06107b9565b105b156112b0576112af611846565b5b600260048111156112bd57fe5b600e60009054906101000a900460ff1660048111156112d857fe5b1480156112ea57506002546009540142115b156112f8576112f7611846565b5b6003600481111561130557fe5b600e60009054906101000a900460ff16600481111561132057fe5b1480156113325750600154600a540142115b1561135c576004600e60006101000a81548160ff0219169083600481111561135657fe5b02179055505b600e60009054906101000a900460ff16905090565b60085481565b60006002600481111561138657fe5b600e60009054906101000a900460ff1660048111156113a157fe5b1480156113b657506008546113b46107b9565b105b156113c4576113c3611846565b5b600260048111156113d157fe5b600e60009054906101000a900460ff1660048111156113ec57fe5b1480156113fe57506002546009540142115b1561140c5761140b611846565b5b6003600481111561141957fe5b600e60009054906101000a900460ff16600481111561143457fe5b1480156114465750600154600a540142115b15611470576004600e60006101000a81548160ff0219169083600481111561146a57fe5b02179055505b6003600481111561147d57fe5b600e60009054906101000a900460ff16600481111561149857fe5b14806114c857506004808111156114ab57fe5b600e60009054906101000a900460ff1660048111156114c657fe5b145b156114d757600c5490506114e2565b6114df6107b9565b90505b90565b60046000369050141580156114ff57506024600036905014155b1561150957600080fd5b6002600481111561151657fe5b600e60009054906101000a900460ff16600481111561153157fe5b14801561154657506008546115446107b9565b105b1561155457611553611846565b5b6002600481111561156157fe5b600e60009054906101000a900460ff16600481111561157c57fe5b14801561158e57506002546009540142115b1561159c5761159b611846565b5b600360048111156115a957fe5b600e60009054906101000a900460ff1660048111156115c457fe5b1480156115d65750600154600a540142115b15611600576004600e60006101000a81548160ff021916908360048111156115fa57fe5b02179055505b600480600481111561160e57fe5b600e60009054906101000a900460ff16600481111561162957fe5b1461163357600080fd5b600073ffffffffffffffffffffffffffffffffffffffff168273ffffffffffffffffffffffffffffffffffffffff16141561166c573391505b6000600c54600d60008573ffffffffffffffffffffffffffffffffffffffff1673ffffffffffffffffffffffffffffffffffffffff16815260200190815260200160002054816116b857fe5b0490506000600d60008573ffffffffffffffffffffffffffffffffffffffff1673ffffffffffffffffffffffffffffffffffffffff16815260200190815260200160002081905550600360009054906101000a900473ffffffffffffffffffffffffffffffffffffffff1673ffffffffffffffffffffffffffffffffffffffff166323b872dd600460009054906101000a900473ffffffffffffffffffffffffffffffffffffffff1685846040518463ffffffff1660e01b8152600401808473ffffffffffffffffffffffffffffffffffffffff1673ffffffffffffffffffffffffffffffffffffffff1681526020018373ffffffffffffffffffffffffffffffffffffffff1673ffffffffffffffffffffffffffffffffffffffff1681526020018281526020019350505050602060405180830381600087803b1580156117ff57600080fd5b505af1158015611813573d6000803e3d6000fd5b505050506040513d602081101561182957600080fd5b810190808051906020019092919050505050505050565b60075481565b6003600e60006101000a81548160ff0219169083600481111561186557fe5b02179055506118726107b9565b600c819055506000600c54600b548161188757fe5b049050600360009054906101000a900473ffffffffffffffffffffffffffffffffffffffff1673ffffffffffffffffffffffffffffffffffffffff166379cc6790600460009054906101000a900473ffffffffffffffffffffffffffffffffffffffff1683600360009054906101000a900473ffffffffffffffffffffffffffffffffffffffff1673ffffffffffffffffffffffffffffffffffffffff166318160ddd6040518163ffffffff1660e01b815260040160206040518083038186803b15801561195457600080fd5b505afa158015611968573d6000803e3d6000fd5b505050506040513d602081101561197e57600080fd5b8101908080519060200190929190505050036040518363ffffffff1660e01b8152600401808373ffffffffffffffffffffffffffffffffffffffff1673ffffffffffffffffffffffffffffffffffffffff16815260200182815260200192505050600060405180830381600087803b1580156119f957600080fd5b505af1158015611a0d573d6000803e3d6000fd5b5050505042600a819055505056fea2646970667358221220a3d46e6149cfa9296227620950b818b9d8689bfb3b69c2859f4f56d42629480b64736f6c63430006020033",
  "source": "pragma solidity ^0.6.0;\r\nimport \"./NTULearnToken.sol\";\r\n\r\ncontract DutchAuction {\r\n\r\n    /*\r\n     *  Events\r\n     */\r\n    event BidSubmission(address indexed sender, uint256 amount);\r\n\r\n    /*\r\n     *  Constants\r\n     */\r\n    uint256 public MAX_TOKENS_SOLD = 100000; \r\n    uint256 public WAITING_PERIOD = 1 minutes;\r\n    uint256 public AUCTION_DURATION = 20 minutes;\r\n\r\n    /*\r\n     *  Storage\r\n     */\r\n    NTULearnToken public LearnToken;\r\n    address payable public wallet;\r\n    address public owner;\r\n    uint256 public ceiling;\r\n    uint256 public startPrice;\r\n    uint256 public clearPrice;\r\n    uint256 public startTime;\r\n    uint256 public endTime;\r\n    uint256 public totalReceived;\r\n    uint256 public finalPrice;\r\n    mapping (address => uint) public bids;\r\n    Stages public stage;\r\n\r\n    /*\r\n     *  Enums\r\n     */\r\n    enum Stages {\r\n        AuctionDeployed,\r\n        AuctionSetUp,\r\n        AuctionStarted,\r\n        AuctionEnded,\r\n        TradingStarted\r\n    }\r\n\r\n    /*\r\n     *  Modifiers\r\n     */\r\n    modifier atStage(Stages _stage) {\r\n        if (stage != _stage)\r\n            // Contract not in expected state\r\n            revert();\r\n        _;\r\n    }\r\n\r\n    modifier isOwner() {\r\n        if (msg.sender != owner)\r\n            // Only owner is allowed to proceed\r\n            revert();\r\n        _;\r\n    }\r\n\r\n    modifier isWallet() {\r\n        if (msg.sender != wallet)\r\n            // Only wallet is allowed to proceed\r\n            revert();\r\n        _;\r\n    }\r\n\r\n    modifier isValidPayload() {\r\n        if (msg.data.length != 4 && msg.data.length != 36)\r\n            revert();\r\n        _;\r\n    }\r\n\r\n    modifier timedTransitions() {\r\n        if (stage == Stages.AuctionStarted && calcTokenPrice() < clearPrice)\r\n            finalizeAuction();\r\n        if (stage == Stages.AuctionStarted && now > startTime + AUCTION_DURATION)\r\n            finalizeAuction();\r\n        if (stage == Stages.AuctionEnded && now > endTime + WAITING_PERIOD)\r\n            stage = Stages.TradingStarted;\r\n        _;\r\n    }\r\n\r\n    /*\r\n     *  Public functions\r\n     */\r\n    /// @dev Contract constructor function sets owner.\r\n    /// @param _wallet Learn wallet.\r\n    /// @param _ceiling Auction ceiling.\r\n    /// @param _startPrice Auction start price.\r\n    function CreateAuction(address payable _wallet, uint256 _ceiling, uint256 _startPrice, uint256 _clearPrice)\r\n        public\r\n    {\r\n        if (_wallet == address(0) || _ceiling == 0 || _startPrice == 0 || _clearPrice == 0)\r\n            // Arguments are null.\r\n            revert();\r\n        owner = msg.sender;\r\n        wallet = _wallet;\r\n        ceiling = _ceiling;\r\n        startPrice = _startPrice;\r\n        clearPrice = _clearPrice;\r\n        stage = Stages.AuctionDeployed;\r\n    }\r\n\r\n    /// @dev Setup function sets external contracts' addresses.\r\n    /// @param _LearnToken Learn token address.\r\n    function setup(address _LearnToken)\r\n        public\r\n        isOwner\r\n        atStage(Stages.AuctionDeployed)\r\n    {\r\n        if (_LearnToken == address(0))\r\n            // Argument is null.\r\n            revert();\r\n        LearnToken = NTULearnToken(_LearnToken);\r\n        // Validate token balance\r\n        if (LearnToken.balanceOf(wallet) < MAX_TOKENS_SOLD)\r\n            revert();\r\n        stage = Stages.AuctionSetUp;\r\n    }\r\n\r\n    function checkStage()\r\n        public\r\n        view\r\n        returns (uint256)\r\n    {\r\n        if (stage==Stages.AuctionDeployed)\r\n            return(0);\r\n        if (stage==Stages.AuctionSetUp)\r\n            return(1);\r\n        if (stage==Stages.AuctionStarted)\r\n            return(2);\r\n        if (stage==Stages.AuctionEnded)\r\n            return(3);\r\n        if (stage==Stages.TradingStarted)\r\n            return(4);\r\n    }\r\n\r\n    /// @dev Starts auction and sets startTime.\r\n    function startAuction()\r\n        public\r\n        isWallet\r\n        atStage(Stages.AuctionSetUp)\r\n    {\r\n        stage = Stages.AuctionStarted;\r\n        startTime = now;\r\n    }\r\n\r\n    /// @dev Changes auction ceiling and start price factor before auction is started.\r\n    /// @param _ceiling Updated auction ceiling.\r\n    /// @param _startPrice Updated start price factor.\r\n    function changeSettings(uint256 _ceiling, uint256 _startPrice, uint _clearPrice)\r\n        public\r\n        isWallet\r\n        atStage(Stages.AuctionSetUp)\r\n    {\r\n        ceiling = _ceiling;\r\n        startPrice = _startPrice;\r\n        clearPrice = _clearPrice;\r\n    }\r\n\r\n    /// @dev Calculates current token price.\r\n    /// @return Returns token price.\r\n    function calcCurrentTokenPrice()\r\n        public\r\n        timedTransitions\r\n        returns (uint256)\r\n    {\r\n        if (stage == Stages.AuctionEnded || stage == Stages.TradingStarted)\r\n            return finalPrice;\r\n        return calcTokenPrice();\r\n    }\r\n\r\n    /// @dev Returns correct stage, even if a function with timedTransitions modifier has not yet been called yet.\r\n    /// @return Returns current auction stage.\r\n    function updateStage()\r\n        public\r\n        timedTransitions\r\n        returns (Stages)\r\n    {\r\n        return stage;\r\n    }\r\n\r\n    /// @dev Allows to send a bid to the auction.\r\n    /// @param receiver Bid will be assigned to this address if set.\r\n    function bid(address payable receiver)\r\n        public\r\n        payable\r\n        isValidPayload\r\n        timedTransitions\r\n        atStage(Stages.AuctionStarted)\r\n        returns (uint256 amount)\r\n    {\r\n        // If a bid is done on behalf of a user via ShapeShift, the receiver address is set.\r\n        if (receiver == address(0))\r\n            receiver = msg.sender;\r\n        amount = msg.value;\r\n\r\n        // ceiling = max tokens sold * clearing price\r\n        uint256 maxWei = ceiling - totalReceived;\r\n        uint256 returnAmt = 0;\r\n        uint256 currentPrice = calcTokenPrice();\r\n        // Unable to buy at least one token\r\n        if (amount < currentPrice)\r\n            revert();\r\n        // Only invest maximum possible amount \r\n        if (amount > maxWei) {\r\n            // Can buy enough tokens to bring total amount past ceiling\r\n            if (amount >= maxWei + (clearPrice-(maxWei%currentPrice))){\r\n                amount = maxWei + (clearPrice-(maxWei%currentPrice)); \r\n            } \r\n            // Cannot buy enough tokens to bring total past ceiling\r\n            else {\r\n                amount = maxWei - (maxWei%currentPrice);\r\n            }\r\n            returnAmt = msg.value - amount;\r\n            // Send change back to receiver address.\r\n            if (!receiver.send(returnAmt))\r\n            // Sending failed\r\n                revert();\r\n        }\r\n        // Forward funding to ether wallet\r\n        if (amount == 0||!wallet.send(amount))\r\n            // No amount sent or sending failed\r\n            revert();\r\n        bids[receiver] += amount;\r\n        totalReceived += amount;\r\n        if (totalReceived >= ceiling)\r\n            // When maxWei is equal to the big amount the auction is ended and finalizeAuction is triggered.\r\n            finalizeAuction();\r\n        BidSubmission(receiver, amount);\r\n    }\r\n\r\n    /// @dev Claims tokens for bidder after auction.\r\n    /// @param receiver Tokens will be assigned to this address if set.\r\n    function claimTokens(address receiver)\r\n        public\r\n        isValidPayload\r\n        timedTransitions\r\n        atStage(Stages.TradingStarted)\r\n    {\r\n        if (receiver == address(0))\r\n            receiver = msg.sender;\r\n        // tokenCount will be rounded down for all successful bids\r\n        uint256 tokenCount = bids[receiver]  / finalPrice;\r\n        bids[receiver] = 0;\r\n        LearnToken.transferFrom(wallet, receiver, tokenCount);\r\n    }\r\n\r\n    /// @dev Calculates token price.\r\n    /// @return Returns token price.\r\n    function calcTokenPrice()\r\n        public\r\n        view\r\n        returns (uint256)\r\n    {\r\n        //need to scale from start price to clear price\r\n        uint256 interval = AUCTION_DURATION / 5;\r\n        uint256 decrement = (startPrice - clearPrice) / 4;\r\n        if (now < startTime + interval)\r\n            return startPrice;\r\n        else if (now < startTime + (2*interval))\r\n            return startPrice - decrement;\r\n        else if (now < startTime + (3*interval))\r\n            return startPrice - (2*decrement);\r\n        else if (now < startTime + (4*interval))\r\n            return startPrice - (3*decrement);\r\n        else{\r\n            return clearPrice;\r\n        }\r\n    }\r\n\r\n    /*\r\n     *  Private functions\r\n     */\r\n    function finalizeAuction()\r\n        private\r\n    {\r\n        stage = Stages.AuctionEnded;\r\n        finalPrice = calcTokenPrice();\r\n        uint256 soldTokens = totalReceived / finalPrice;\r\n        // Auction contract burns all unsold tokens\r\n        LearnToken.burnFrom(wallet, LearnToken.totalSupply() - soldTokens);\r\n        endTime = now;\r\n    }\r\n    function skipTime() \r\n        public \r\n    {\r\n        WAITING_PERIOD = 0;\r\n        finalizeAuction();\r\n        stage = Stages.TradingStarted;\r\n    }\r\n}",
  "sourcePath": "C:/Users/zy/Documents/blockchain/sg/blockchain/contracts/DutchAuction.sol",
  "compiler": {
    "name": "solc",
    "version": "0.6.2+commit.bacdbe57.Emscripten.clang"
  },
  "schemaVersion": "3.3.1",
  "updatedAt": "2020-10-29T15:04:58.756Z",
  "networkType": "ethereum",
  "devdoc": {
    "methods": {
      "CreateAuction(address,uint256,uint256,uint256)": {
        "details": "Contract constructor function sets owner.",
        "params": {
          "_ceiling": "Auction ceiling.",
          "_startPrice": "Auction start price.",
          "_wallet": "Learn wallet."
        }
      },
      "bid(address)": {
        "details": "Allows to send a bid to the auction.",
        "params": {
          "receiver": "Bid will be assigned to this address if set."
        }
      },
      "calcCurrentTokenPrice()": {
        "details": "Calculates current token price.",
        "returns": {
          "_0": "Returns token price."
        }
      },
      "calcTokenPrice()": {
        "details": "Calculates token price.",
        "returns": {
          "_0": "Returns token price."
        }
      },
      "changeSettings(uint256,uint256,uint256)": {
        "details": "Changes auction ceiling and start price factor before auction is started.",
        "params": {
          "_ceiling": "Updated auction ceiling.",
          "_startPrice": "Updated start price factor."
        }
      },
      "claimTokens(address)": {
        "details": "Claims tokens for bidder after auction.",
        "params": {
          "receiver": "Tokens will be assigned to this address if set."
        }
      },
      "setup(address)": {
        "details": "Setup function sets external contracts' addresses.",
        "params": {
          "_LearnToken": "Learn token address."
        }
      },
      "startAuction()": {
        "details": "Starts auction and sets startTime."
      },
      "updateStage()": {
        "details": "Returns correct stage, even if a function with timedTransitions modifier has not yet been called yet.",
        "returns": {
          "_0": "Returns current auction stage."
        }
      }
    }
  },
  "userdoc": {
    "methods": {}
  }
}