{
  "contractName": "DutchAuction",
  "abi": [
    {
      "anonymous": false,
      "inputs": [
        {
          "indexed": true,
          "internalType": "address",
          "name": "sender",
          "type": "address"
        },
        {
          "indexed": false,
          "internalType": "uint256",
          "name": "amount",
          "type": "uint256"
        }
      ],
      "name": "BidSubmission",
      "type": "event"
    },
    {
      "inputs": [],
      "name": "AUCTION_DURATION",
      "outputs": [
        {
          "internalType": "uint256",
          "name": "",
          "type": "uint256"
        }
      ],
      "stateMutability": "view",
      "type": "function",
      "constant": true
    },
    {
      "inputs": [],
      "name": "LearnToken",
      "outputs": [
        {
          "internalType": "contract NTULearnToken",
          "name": "",
          "type": "address"
        }
      ],
      "stateMutability": "view",
      "type": "function",
      "constant": true
    },
    {
      "inputs": [],
      "name": "MAX_TOKENS_SOLD",
      "outputs": [
        {
          "internalType": "uint256",
          "name": "",
          "type": "uint256"
        }
      ],
      "stateMutability": "view",
      "type": "function",
      "constant": true
    },
    {
      "inputs": [
        {
          "internalType": "address",
          "name": "",
          "type": "address"
        }
      ],
      "name": "bids",
      "outputs": [
        {
          "internalType": "uint256",
          "name": "",
          "type": "uint256"
        }
      ],
      "stateMutability": "view",
      "type": "function",
      "constant": true
    },
    {
      "inputs": [],
      "name": "clearPrice",
      "outputs": [
        {
          "internalType": "uint256",
          "name": "",
          "type": "uint256"
        }
      ],
      "stateMutability": "view",
      "type": "function",
      "constant": true
    },
    {
      "inputs": [],
      "name": "endTime",
      "outputs": [
        {
          "internalType": "uint256",
          "name": "",
          "type": "uint256"
        }
      ],
      "stateMutability": "view",
      "type": "function",
      "constant": true
    },
    {
      "inputs": [],
      "name": "finalPrice",
      "outputs": [
        {
          "internalType": "uint256",
          "name": "",
          "type": "uint256"
        }
      ],
      "stateMutability": "view",
      "type": "function",
      "constant": true
    },
    {
      "inputs": [],
      "name": "owner",
      "outputs": [
        {
          "internalType": "address",
          "name": "",
          "type": "address"
        }
      ],
      "stateMutability": "view",
      "type": "function",
      "constant": true
    },
    {
      "inputs": [],
      "name": "stage",
      "outputs": [
        {
          "internalType": "enum DutchAuction.Stages",
          "name": "",
          "type": "uint8"
        }
      ],
      "stateMutability": "view",
      "type": "function",
      "constant": true
    },
    {
      "inputs": [],
      "name": "startPrice",
      "outputs": [
        {
          "internalType": "uint256",
          "name": "",
          "type": "uint256"
        }
      ],
      "stateMutability": "view",
      "type": "function",
      "constant": true
    },
    {
      "inputs": [],
      "name": "startTime",
      "outputs": [
        {
          "internalType": "uint256",
          "name": "",
          "type": "uint256"
        }
      ],
      "stateMutability": "view",
      "type": "function",
      "constant": true
    },
    {
      "inputs": [],
      "name": "totalReceived",
      "outputs": [
        {
          "internalType": "uint256",
          "name": "",
          "type": "uint256"
        }
      ],
      "stateMutability": "view",
      "type": "function",
      "constant": true
    },
    {
      "inputs": [],
      "name": "wallet",
      "outputs": [
        {
          "internalType": "address payable",
          "name": "",
          "type": "address"
        }
      ],
      "stateMutability": "view",
      "type": "function",
      "constant": true
    },
    {
      "inputs": [
        {
          "internalType": "address payable",
          "name": "_wallet",
          "type": "address"
        },
        {
          "internalType": "uint256",
          "name": "_startPrice",
          "type": "uint256"
        },
        {
          "internalType": "uint256",
          "name": "_clearPrice",
          "type": "uint256"
        }
      ],
      "name": "CreateAuction",
      "outputs": [],
      "stateMutability": "nonpayable",
      "type": "function"
    },
    {
      "inputs": [
        {
          "internalType": "address",
          "name": "_LearnToken",
          "type": "address"
        }
      ],
      "name": "setup",
      "outputs": [],
      "stateMutability": "nonpayable",
      "type": "function"
    },
    {
      "inputs": [],
      "name": "checkStage",
      "outputs": [
        {
          "internalType": "uint256",
          "name": "",
          "type": "uint256"
        }
      ],
      "stateMutability": "view",
      "type": "function",
      "constant": true
    },
    {
      "inputs": [],
      "name": "startAuction",
      "outputs": [],
      "stateMutability": "nonpayable",
      "type": "function"
    },
    {
      "inputs": [
        {
          "internalType": "uint256",
          "name": "_startPrice",
          "type": "uint256"
        },
        {
          "internalType": "uint256",
          "name": "_clearPrice",
          "type": "uint256"
        }
      ],
      "name": "changeSettings",
      "outputs": [],
      "stateMutability": "nonpayable",
      "type": "function"
    },
    {
      "inputs": [],
      "name": "calcCurrentTokenPrice",
      "outputs": [
        {
          "internalType": "uint256",
          "name": "",
          "type": "uint256"
        }
      ],
      "stateMutability": "nonpayable",
      "type": "function"
    },
    {
      "inputs": [],
      "name": "updateStage",
      "outputs": [
        {
          "internalType": "enum DutchAuction.Stages",
          "name": "",
          "type": "uint8"
        }
      ],
      "stateMutability": "nonpayable",
      "type": "function"
    },
    {
      "inputs": [
        {
          "internalType": "address payable",
          "name": "receiver",
          "type": "address"
        }
      ],
      "name": "bid",
      "outputs": [
        {
          "internalType": "uint256",
          "name": "amount",
          "type": "uint256"
        }
      ],
      "stateMutability": "payable",
      "type": "function",
      "payable": true
    },
    {
      "inputs": [
        {
          "internalType": "address",
          "name": "receiver",
          "type": "address"
        }
      ],
      "name": "claimTokens",
      "outputs": [],
      "stateMutability": "nonpayable",
      "type": "function"
    },
    {
      "inputs": [],
      "name": "calcTokenPrice",
      "outputs": [
        {
          "internalType": "uint256",
          "name": "",
          "type": "uint256"
        }
      ],
      "stateMutability": "view",
      "type": "function",
      "constant": true
    },
    {
      "inputs": [],
      "name": "endAuction",
      "outputs": [],
      "stateMutability": "nonpayable",
      "type": "function"
    },
    {
      "inputs": [],
      "name": "skipTime",
      "outputs": [],
      "stateMutability": "nonpayable",
      "type": "function"
    },
    {
      "inputs": [],
      "name": "timeLeft",
      "outputs": [
        {
          "internalType": "uint256",
          "name": "",
          "type": "uint256"
        }
      ],
      "stateMutability": "view",
      "type": "function",
      "constant": true
    },
    {
      "inputs": [],
      "name": "tokensLeft",
      "outputs": [
        {
          "internalType": "uint256",
          "name": "",
          "type": "uint256"
        }
      ],
      "stateMutability": "view",
      "type": "function",
      "constant": true
    }
  ],
  "bytecode": "0x6080604052629896806000556104b060015534801561001d57600080fd5b506117f38061002d6000396000f3fe60806040526004361061019c5760003560e01c80637f93c751116100ec578063c040e6b81161008a578063d9f8a4e211610064578063d9f8a4e2146106d7578063df8de3e714610702578063f1a9af8914610753578063fe67a54b1461077e5761019c565b8063c040e6b81461063a578063c062f57814610673578063d4e8b043146106ac5761019c565b8063a271e525116100c6578063a271e5251461058e578063a3c2c462146105b9578063a6b513ee146105e4578063b31f8f931461060f5761019c565b80637f93c751146104b45780638da5cb5b146104df5780639cf5453d146105365761019c565b8063521eb273116101595780636b64c769116101335780636b64c769146103b6578063710f5a3d146103cd57806376b6dded1461043257806378e97925146104895761019c565b8063521eb273146102a957806362ea82db1461030057806366d38203146103655761019c565b80631300a6d1146101a15780631733ffe5146101cc57806317f5de95146101e35780633197cbb61461020e57806336d02c941461023957806339f64b521461027e575b600080fd5b3480156101ad57600080fd5b506101b6610795565b6040518082815260200191505060405180910390f35b3480156101d857600080fd5b506101e16107be565b005b3480156101ef57600080fd5b506101f8610822565b6040518082815260200191505060405180910390f35b34801561021a57600080fd5b50610223610828565b6040518082815260200191505060405180910390f35b34801561024557600080fd5b5061027c6004803603604081101561025c57600080fd5b81019080803590602001909291908035906020019092919050505061082e565b005b34801561028a57600080fd5b506102936108ce565b6040518082815260200191505060405180910390f35b3480156102b557600080fd5b506102be610982565b604051808273ffffffffffffffffffffffffffffffffffffffff1673ffffffffffffffffffffffffffffffffffffffff16815260200191505060405180910390f35b34801561030c57600080fd5b5061034f6004803603602081101561032357600080fd5b81019080803573ffffffffffffffffffffffffffffffffffffffff1690602001909291905050506109a8565b6040518082815260200191505060405180910390f35b34801561037157600080fd5b506103b46004803603602081101561038857600080fd5b81019080803573ffffffffffffffffffffffffffffffffffffffff1690602001909291905050506109c0565b005b3480156103c257600080fd5b506103cb610bfa565b005b3480156103d957600080fd5b50610430600480360360608110156103f057600080fd5b81019080803573ffffffffffffffffffffffffffffffffffffffff1690602001909291908035906020019092919080359060200190929190505050610cb5565b005b34801561043e57600080fd5b50610447610dbe565b604051808273ffffffffffffffffffffffffffffffffffffffff1673ffffffffffffffffffffffffffffffffffffffff16815260200191505060405180910390f35b34801561049557600080fd5b5061049e610de4565b6040518082815260200191505060405180910390f35b3480156104c057600080fd5b506104c9610dea565b6040518082815260200191505060405180910390f35b3480156104eb57600080fd5b506104f4610eca565b604051808273ffffffffffffffffffffffffffffffffffffffff1673ffffffffffffffffffffffffffffffffffffffff16815260200191505060405180910390f35b6105786004803603602081101561054c57600080fd5b81019080803573ffffffffffffffffffffffffffffffffffffffff169060200190929190505050610ef0565b6040518082815260200191505060405180910390f35b34801561059a57600080fd5b506105a361118a565b6040518082815260200191505060405180910390f35b3480156105c557600080fd5b506105ce611190565b6040518082815260200191505060405180910390f35b3480156105f057600080fd5b506105f9611196565b6040518082815260200191505060405180910390f35b34801561061b57600080fd5b5061062461119c565b6040518082815260200191505060405180910390f35b34801561064657600080fd5b5061064f6111cb565b6040518082600381111561065f57fe5b60ff16815260200191505060405180910390f35b34801561067f57600080fd5b506106886111de565b6040518082600381111561069857fe5b60ff16815260200191505060405180910390f35b3480156106b857600080fd5b506106c161123d565b6040518082815260200191505060405180910390f35b3480156106e357600080fd5b506106ec611243565b6040518082815260200191505060405180910390f35b34801561070e57600080fd5b506107516004803603602081101561072557600080fd5b81019080803573ffffffffffffffffffffffffffffffffffffffff1690602001909291905050506112d2565b005b34801561075f57600080fd5b5061076861157e565b6040518082815260200191505060405180910390f35b34801561078a57600080fd5b50610793611584565b005b600080426001546007540103905060008110156107b65760009150506107bb565b809150505b90565b600460009054906101000a900473ffffffffffffffffffffffffffffffffffffffff1673ffffffffffffffffffffffffffffffffffffffff163373ffffffffffffffffffffffffffffffffffffffff161461081857600080fd5b6000600181905550565b60005481565b60085481565b600360009054906101000a900473ffffffffffffffffffffffffffffffffffffffff1673ffffffffffffffffffffffffffffffffffffffff163373ffffffffffffffffffffffffffffffffffffffff161461088857600080fd5b600180600381111561089657fe5b600c60009054906101000a900460ff1660038111156108b157fe5b146108bb57600080fd5b8260058190555081600681905550505050565b6000806005600154816108dd57fe5b0490506000600460065460055403816108f257fe5b049050816007540142108061090957506000600754145b1561091a576005549250505061097f565b81600202600754014210156109375780600554039250505061097f565b81600302600754014210156109575780600202600554039250505061097f565b81600402600754014210156109775780600302600554039250505061097f565b600654925050505b90565b600360009054906101000a900473ffffffffffffffffffffffffffffffffffffffff1681565b600b6020528060005260406000206000915090505481565b600460009054906101000a900473ffffffffffffffffffffffffffffffffffffffff1673ffffffffffffffffffffffffffffffffffffffff163373ffffffffffffffffffffffffffffffffffffffff1614610a1a57600080fd5b6000806003811115610a2857fe5b600c60009054906101000a900460ff166003811115610a4357fe5b14610a4d57600080fd5b600073ffffffffffffffffffffffffffffffffffffffff168273ffffffffffffffffffffffffffffffffffffffff161415610a8757600080fd5b81600260006101000a81548173ffffffffffffffffffffffffffffffffffffffff021916908373ffffffffffffffffffffffffffffffffffffffff160217905550600054600260009054906101000a900473ffffffffffffffffffffffffffffffffffffffff1673ffffffffffffffffffffffffffffffffffffffff166370a08231600360009054906101000a900473ffffffffffffffffffffffffffffffffffffffff166040518263ffffffff1660e01b8152600401808273ffffffffffffffffffffffffffffffffffffffff1673ffffffffffffffffffffffffffffffffffffffff16815260200191505060206040518083038186803b158015610b8c57600080fd5b505afa158015610ba0573d6000803e3d6000fd5b505050506040513d6020811015610bb657600080fd5b81019080805190602001909291905050501015610bd257600080fd5b6001600c60006101000a81548160ff02191690836003811115610bf157fe5b02179055505050565b600360009054906101000a900473ffffffffffffffffffffffffffffffffffffffff1673ffffffffffffffffffffffffffffffffffffffff163373ffffffffffffffffffffffffffffffffffffffff1614610c5457600080fd5b6001806003811115610c6257fe5b600c60009054906101000a900460ff166003811115610c7d57fe5b14610c8757600080fd5b6002600c60006101000a81548160ff02191690836003811115610ca657fe5b02179055504260078190555050565b600073ffffffffffffffffffffffffffffffffffffffff168373ffffffffffffffffffffffffffffffffffffffff161480610cf05750600082145b80610cfb5750600081145b15610d0557600080fd5b33600460006101000a81548173ffffffffffffffffffffffffffffffffffffffff021916908373ffffffffffffffffffffffffffffffffffffffff16021790555082600360006101000a81548173ffffffffffffffffffffffffffffffffffffffff021916908373ffffffffffffffffffffffffffffffffffffffff16021790555081600581905550806006819055506000600c60006101000a81548160ff02191690836003811115610db457fe5b0217905550505050565b600260009054906101000a900473ffffffffffffffffffffffffffffffffffffffff1681565b60075481565b6000806003811115610df857fe5b600c60009054906101000a900460ff166003811115610e1357fe5b1415610e225760009050610ec7565b60016003811115610e2f57fe5b600c60009054906101000a900460ff166003811115610e4a57fe5b1415610e595760019050610ec7565b60026003811115610e6657fe5b600c60009054906101000a900460ff166003811115610e8157fe5b1415610e905760029050610ec7565b600380811115610e9c57fe5b600c60009054906101000a900460ff166003811115610eb757fe5b1415610ec65760039050610ec7565b5b90565b600460009054906101000a900473ffffffffffffffffffffffffffffffffffffffff1681565b60006004600036905014158015610f0c57506024600036905014155b15610f1657600080fd5b60026003811115610f2357fe5b600c60009054906101000a900460ff166003811115610f3e57fe5b148015610f5057506001546007540142115b15610f5e57610f5d6115e8565b5b6002806003811115610f6c57fe5b600c60009054906101000a900460ff166003811115610f8757fe5b14610f9157600080fd5b600073ffffffffffffffffffffffffffffffffffffffff168373ffffffffffffffffffffffffffffffffffffffff161415610fca573392505b3491506000610fd761119c565b90506000610fe36108ce565b905060008183029050600080905082861015610ffe57600080fd5b81861061104c5781955085340390508673ffffffffffffffffffffffffffffffffffffffff166108fc829081150290604051600060405180830381858888f1935050505061104b57600080fd5b5b60008614806110af5750600360009054906101000a900473ffffffffffffffffffffffffffffffffffffffff1673ffffffffffffffffffffffffffffffffffffffff166108fc879081150290604051600060405180830381858888f19350505050155b156110b957600080fd5b85600b60008973ffffffffffffffffffffffffffffffffffffffff1673ffffffffffffffffffffffffffffffffffffffff16815260200190815260200160002060008282540192505081905550856009600082825401925050819055506000836000540290508060095410611131576111306115e8565b5b8773ffffffffffffffffffffffffffffffffffffffff167f9c89e828e6cee6374b68147c9e753e41746aad98ba255a527a4fc0ac1868bff9886040518082815260200191505060405180910390a2505050505050919050565b60015481565b60095481565b600a5481565b6000806111a76108ce565b9050600081600954816111b657fe5b04905060008160005403905080935050505090565b600c60009054906101000a900460ff1681565b6000600260038111156111ed57fe5b600c60009054906101000a900460ff16600381111561120857fe5b14801561121a57506001546007540142115b15611228576112276115e8565b5b600c60009054906101000a900460ff16905090565b60065481565b60006002600381111561125257fe5b600c60009054906101000a900460ff16600381111561126d57fe5b14801561127f57506001546007540142115b1561128d5761128c6115e8565b5b60038081111561129957fe5b600c60009054906101000a900460ff1660038111156112b457fe5b14156112c457600a5490506112cf565b6112cc6108ce565b90505b90565b60046000369050141580156112ec57506024600036905014155b156112f657600080fd5b6002600381111561130357fe5b600c60009054906101000a900460ff16600381111561131e57fe5b14801561133057506001546007540142115b1561133e5761133d6115e8565b5b600380600381111561134c57fe5b600c60009054906101000a900460ff16600381111561136757fe5b1461137157600080fd5b600073ffffffffffffffffffffffffffffffffffffffff168273ffffffffffffffffffffffffffffffffffffffff1614156113aa573391505b6000600a54600b60008573ffffffffffffffffffffffffffffffffffffffff1673ffffffffffffffffffffffffffffffffffffffff16815260200190815260200160002054816113f657fe5b0490506000600b60008573ffffffffffffffffffffffffffffffffffffffff1673ffffffffffffffffffffffffffffffffffffffff16815260200190815260200160002081905550600260009054906101000a900473ffffffffffffffffffffffffffffffffffffffff1673ffffffffffffffffffffffffffffffffffffffff166323b872dd600360009054906101000a900473ffffffffffffffffffffffffffffffffffffffff1685846040518463ffffffff1660e01b8152600401808473ffffffffffffffffffffffffffffffffffffffff1673ffffffffffffffffffffffffffffffffffffffff1681526020018373ffffffffffffffffffffffffffffffffffffffff1673ffffffffffffffffffffffffffffffffffffffff1681526020018281526020019350505050602060405180830381600087803b15801561153d57600080fd5b505af1158015611551573d6000803e3d6000fd5b505050506040513d602081101561156757600080fd5b810190808051906020019092919050505050505050565b60055481565b600460009054906101000a900473ffffffffffffffffffffffffffffffffffffffff1673ffffffffffffffffffffffffffffffffffffffff163373ffffffffffffffffffffffffffffffffffffffff16146115de57600080fd5b6115e66115e8565b565b6003600c60006101000a81548160ff0219169083600381111561160757fe5b02179055506116146108ce565b600a819055506000600a546009548161162957fe5b049050600260009054906101000a900473ffffffffffffffffffffffffffffffffffffffff1673ffffffffffffffffffffffffffffffffffffffff166379cc6790600360009054906101000a900473ffffffffffffffffffffffffffffffffffffffff1683600260009054906101000a900473ffffffffffffffffffffffffffffffffffffffff1673ffffffffffffffffffffffffffffffffffffffff166318160ddd6040518163ffffffff1660e01b815260040160206040518083038186803b1580156116f657600080fd5b505afa15801561170a573d6000803e3d6000fd5b505050506040513d602081101561172057600080fd5b8101908080519060200190929190505050036040518363ffffffff1660e01b8152600401808373ffffffffffffffffffffffffffffffffffffffff1673ffffffffffffffffffffffffffffffffffffffff16815260200182815260200192505050600060405180830381600087803b15801561179b57600080fd5b505af11580156117af573d6000803e3d6000fd5b50505050426008819055505056fea26469706673582212209aed39939e826d171abdb95e9eb5a03b1fb10c70f456f95f18fb37884211c00f64736f6c63430006020033",
  "source": "pragma solidity ^0.6.0;\nimport \"./NTULearnToken.sol\";\n\ncontract DutchAuction {\n\n    /*\n     *  Events\n     */\n    event BidSubmission(address indexed sender, uint256 amount);\n\n    /*\n     *  Constants\n     */\n    uint256 public MAX_TOKENS_SOLD = 10000000; \n    uint256 public AUCTION_DURATION = 20 minutes;\n\n    /*\n     *  Storage\n     */\n    NTULearnToken public LearnToken;\n    address payable public wallet;\n    address public owner;\n    uint256 public startPrice;\n    uint256 public clearPrice;\n    uint256 public startTime;\n    uint256 public endTime;\n    uint256 public totalReceived;\n    uint256 public finalPrice;\n    mapping (address => uint) public bids;\n    Stages public stage;\n\n    /*\n     *  Enums\n     */\n    enum Stages {\n        AuctionDeployed,\n        AuctionSetUp,\n        AuctionStarted,\n        AuctionEnded\n    }\n\n    /*\n     *  Modifiers\n     */\n    modifier atStage(Stages _stage) {\n        if (stage != _stage)\n            // Contract not in expected state\n            revert();\n        _;\n    }\n\n    modifier isOwner() {\n        if (msg.sender != owner)\n            // Only owner is allowed to proceed\n            revert();\n        _;\n    }\n\n    modifier isWallet() {\n        if (msg.sender != wallet)\n            // Only wallet is allowed to proceed\n            revert();\n        _;\n    }\n\n    modifier isValidPayload() {\n        if (msg.data.length != 4 && msg.data.length != 36)\n            revert();\n        _;\n    }\n\n    modifier timedTransitions() {\n        if (stage == Stages.AuctionStarted && now > startTime + AUCTION_DURATION)\n            finalizeAuction();\n        _;\n    }\n\n    /*\n     *  Public functions\n     */\n    function CreateAuction(address payable _wallet, uint256 _startPrice, uint256 _clearPrice)\n        public\n    {\n        if (_wallet == address(0) || _startPrice == 0 || _clearPrice == 0)\n            // Arguments are null.\n            revert();\n        owner = msg.sender;\n        wallet = _wallet;\n        startPrice = _startPrice;\n        clearPrice = _clearPrice;\n        stage = Stages.AuctionDeployed;\n    }\n\n    function setup(address _LearnToken)\n        public\n        isOwner\n        atStage(Stages.AuctionDeployed)\n    {\n        if (_LearnToken == address(0))\n            // Argument is null.\n            revert();\n        LearnToken = NTULearnToken(_LearnToken);\n        // Validate token balance\n        if (LearnToken.balanceOf(wallet) < MAX_TOKENS_SOLD)\n            revert();\n        stage = Stages.AuctionSetUp;\n    }\n\n    function checkStage()\n        public\n        view\n        returns (uint256)\n    {\n        if (stage==Stages.AuctionDeployed)\n            return(0);\n        if (stage==Stages.AuctionSetUp)\n            return(1);\n        if (stage==Stages.AuctionStarted)\n            return(2);\n        if (stage==Stages.AuctionEnded)\n            return(3);\n    }\n\n    function startAuction()\n        public\n        isWallet\n        atStage(Stages.AuctionSetUp)\n    {\n        stage = Stages.AuctionStarted;\n        startTime = now;\n    }\n\n    function changeSettings(uint256 _startPrice, uint _clearPrice)\n        public\n        isWallet\n        atStage(Stages.AuctionSetUp)\n    {\n        startPrice = _startPrice;\n        clearPrice = _clearPrice;\n    }\n\n    function calcCurrentTokenPrice()\n        public\n        timedTransitions\n        returns (uint256)\n    {\n        if (stage == Stages.AuctionEnded)\n            return finalPrice;\n        return calcTokenPrice();\n    }\n\n    function updateStage()\n        public\n        timedTransitions\n        returns (Stages)\n    {\n        return stage;\n    }\n\n    function bid(address payable receiver)\n        public\n        payable\n        isValidPayload\n        timedTransitions\n        atStage(Stages.AuctionStarted)\n        returns (uint256 amount)\n    {\n        // If a bid is done on behalf of a user via ShapeShift, the receiver address is set.\n        if (receiver == address(0))\n            receiver = msg.sender;\n        amount = msg.value;\n\n        uint256 tokenSupply = tokensLeft();\n        uint256 currentPrice = calcTokenPrice();\n        uint256 maxWei = tokenSupply * currentPrice;\n        uint256 returnAmt = 0;\n        // Unable to buy at least one token\n        if (amount < currentPrice)\n            revert();\n        // Only invest maximum possible amount \n        if (amount >= maxWei) {\n                amount = maxWei;\n            returnAmt = msg.value - amount;\n            // Send change back to receiver address.\n            if (!receiver.send(returnAmt))\n            // Sending failed\n                revert();\n        }\n        // Forward funding to ether wallet\n        if (amount == 0||!wallet.send(amount))\n            // No amount sent or sending failed\n            revert();\n        bids[receiver] += amount;\n        totalReceived += amount;\n        uint256 cap = MAX_TOKENS_SOLD * currentPrice;\n        if (totalReceived >= cap)\n            // When maxWei is equal to the big amount the auction is ended and finalizeAuction is triggered.\n            finalizeAuction();\n        BidSubmission(receiver, amount);\n    }\n\n    function claimTokens(address receiver)\n        public\n        isValidPayload\n        timedTransitions\n        atStage(Stages.AuctionEnded)\n    {\n        if (receiver == address(0))\n            receiver = msg.sender;\n        // tokenCount will be rounded down for all successful bids\n        uint256 tokenCount = bids[receiver]  / finalPrice;\n        bids[receiver] = 0;\n        LearnToken.transferFrom(wallet, receiver, tokenCount);\n    }\n\n    function calcTokenPrice()\n        public\n        view\n        returns (uint256)\n    {\n        //need to scale from start price to clear price\n        uint256 interval = AUCTION_DURATION / 5;\n        uint256 decrement = (startPrice - clearPrice) / 4;\n        if (now < startTime + interval || startTime == 0)\n            return startPrice;\n        else if (now < startTime + (2*interval))\n            return startPrice - decrement;\n        else if (now < startTime + (3*interval))\n            return startPrice - (2*decrement);\n        else if (now < startTime + (4*interval))\n            return startPrice - (3*decrement);\n        else{\n            return clearPrice;\n        }\n    }\n\n    function endAuction() \n        public \n        isOwner\n    {\n        finalizeAuction();\n    }\n\n    function skipTime()\n        public\n        isOwner\n    {\n        AUCTION_DURATION = 0 minutes;\n    }\n\n    function timeLeft()\n        public\n        view\n        returns (uint256)\n    {\n        uint256 remainingTime = startTime + AUCTION_DURATION - now;\n        if (remainingTime < 0){\n            return 0;\n        } else {\n            return remainingTime;\n        }\n    }\n\n    function tokensLeft()\n        public\n        view\n        returns (uint256)\n    {\n        uint256 currPrice = calcTokenPrice(); \n        uint256 soldTokens = totalReceived / currPrice;\n        uint256 tokensRemaining = MAX_TOKENS_SOLD - soldTokens;\n        return tokensRemaining; \n    }\n\n    /*\n     *  Private functions\n     */\n    function finalizeAuction()\n        private\n    {\n        stage = Stages.AuctionEnded;\n        finalPrice = calcTokenPrice();\n        uint256 soldTokens = totalReceived / finalPrice;\n        // Auction contract burns all unsold tokens\n        LearnToken.burnFrom(wallet, LearnToken.totalSupply() - soldTokens);\n        endTime = now;\n    }\n}",
  "sourcePath": "C:/Users/zy/Documents/blockchain/sg/blockchain/contracts/DutchAuction.sol",
  "compiler": {
    "name": "solc",
    "version": "0.6.2+commit.bacdbe57.Emscripten.clang"
  },
  "schemaVersion": "3.3.1",
  "updatedAt": "2020-11-02T17:41:45.731Z",
  "networkType": "ethereum",
  "devdoc": {
    "methods": {}
  },
  "userdoc": {
    "methods": {}
  }
}